:0400000057EF00F0C6
:10000800D61AD61AD61AD61AD61AD61AD61AD61A68
:100018009A19D61AD61AD61AD61AD61AD61AD61A95
:10002800D61AD61AD61AD61AD61AD61AD61AD61A48
:10003800D61AD61AD61AD61AD61AD61AD61AD61A38
:10004800691AD61AA81AD61A2B00D61AD61AD61A88
:10005800D61AD61AD61AD61AD61AD61AD61AD61A18
:10006800D61AD61AD61AD61AD61AD61A791AD61A65
:10007800AE1AD61A2B00D61AD61AD61A2B002B006F
:100088002B002B002B002B002B002B00711AD61AEB
:10009800B41AD61AD61AD61A2B002B002B002B000E
:0A00A800D61AD61AC0001DEF31F081
:1020000000404B01E2C04B0000D0FC8C029900392B
:1020100041F99E860B24067FA60000000000000008
:1020200000000000000000000000000000000000B0
:1020300000007312000080B436003B0100023F0331
:102040000104FF051706110707080009000CC30D5E
:10205000C40EC50FC6110212021302140215021695
:102060000217001C001D00412008048120CFF7FE4C
:10207000FFFF393837344310063C04427D9F6A42E3
:102080005C900142604DBB4051EC473EDE8D1FBB72
:10209000ECF34A48359595C717C1DC45FDDB6DC3A8
:1020A00072B33340063C0442C0598B42740444422C
:1020B000F99B4F410000803F2B3401487F9DB04584
:0920C000E7FFD9420000803F0057
:1020CA00000E0001B86F000EB56F000EB66F000E5D
:1020DA00B76F4EEC33F093EC1AF062EC32F0520E1A
:1020EA000001B46F2B0EB36F000EE82EFED7B32F8C
:1020FA00FCD7B42FFAD700F0000E0001EE6F000EE5
:10210A00ED6F000EEA6F000EE96F000EE86F000E29
:10211A00E76F000E4E6E000E4D6E000EE66F000E5B
:10212A00E56F000EDE6F000EDD6F000ED96F000E38
:10213A00DA6F020EDB6F430EDC6F000ED56F000EF6
:10214A00D66F000ED76F000ED86F000E0101546FC4
:10215A00000E556F000E566F000E576F000E506F2F
:10216A00000E516F000E526F000E536FDB0E00010E
:10217A00D16F0F0ED26FC90ED36FBF0ED46FAAECF8
:10218A0017F0C0EC34F0000E0001D96F000EDA6FC0
:10219A00020EDB6F430EDC6F000ED56F000ED66F9A
:1021AA00000ED76F000ED86F000E0101546F000E9B
:1021BA00556F480E566F420E576F000E506F000E45
:1021CA00516F000E526F000E536FDB0E0001D16F7C
:1021DA000F0ED26FC90ED36FBF0ED46FAAEC17F0D1
:1021EA0062EC29F0FBEC2DF0030E0001F46F030EF4
:1021FA00F36F030EF26F030EF16F030EF06F030E0F
:10220A00EF6F3F01D28FD29DD28F07D039019191C2
:10221A00FBC0FEF0F9C0FDF091810001FDB3F6D7D5
:10222A0083EC32F03F01D28DA6A1B2B1FDD79AB1AB
:10223A00FBD739019191FBC0FEF0F9C0FDF0918105
:10224A00AFEF16F07DEC35F00001FDB353D060001E
:10225A0034F335F0600038F336F060003CF337F0C1
:10226A00600040F338F0000E396E000E3A6E800EB0
:10227A003B6E3F0E3C6E78EC20F06000D4F0CDF05F
:10228A006000D8F0CEF06000DCF0CFF06000E0F043
:10229A00D0F0B8EC26F062EC29F0FBEC2DF06000EF
:1022AA0034F335F0600038F336F060003CF337F071
:1022BA00600040F338F0000E396E000E3A6E800E60
:1022CA003B6E3F0E3C6E78EC20F06000D4F0CDF00F
:1022DA006000D8F0CEF06000DCF0CFF06000E0F0F3
:1022EA00D0F00DEC28F059EC2AF083EC32F0010E14
:1022FA000001B86FFDB954D0600034F38FF060006C
:10230A0038F390F060003CF391F0600040F392F0F3
:10231A00000E936F000E946F800E956F3F0E966FAE
:10232A008FEC31F060003CF2CDF0600040F2CEF06C
:10233A00600044F2CFF0600048F2D0F0B8EC26F02A
:10234A0062EC29F0FBEC2DF0600034F38FF06000B2
:10235A0038F390F060003CF391F0600040F392F0A3
:10236A00000E0001936F000E946F800E956F3F0E62
:10237A00966F8FEC31F060003CF2CDF0600040F2D5
:10238A00CEF0600044F2CFF0600048F2D0F00DECDD
:10239A0028F059EC2AF083EC32F0020E0001B86FF3
:1023AA00FEB953D0600024F335F0600028F336F00C
:1023BA0060002CF337F0600030F338F0000E396E0D
:1023CA00000E3A6E800E3B6E3F0E3C6E78EC20F0AB
:1023DA006000D4F0C9F06000D8F0CAF06000DCF008
:1023EA00CBF06000E0F0CCF0B8EC26F062EC29F01B
:1023FA00FBEC2DF0600024F335F0600028F336F092
:10240A0060002CF337F0600030F338F0000E396EBC
:10241A00000E3A6E800E3B6E3F0E3C6E78EC20F05A
:10242A006000D4F0C9F06000D8F0CAF06000DCF0B7
:10243A00CBF06000E0F0CCF00DEC28F059EC2AF07B
:10244A0083EC32F0030E0001B86FFEB3F3EF16F01F
:10245A00600024F38FF0600028F390F060002CF302
:10246A0091F0600030F392F0000E936F000E946FBB
:10247A00800E956F3F0E966F8FEC31F060003CF244
:10248A00C9F0600040F2CAF0600044F2CBF060008C
:10249A0048F2CCF0B8EC26F062EC29F0FBEC2DF017
:1024AA00600024F38FF0600028F390F060002CF3B2
:1024BA0091F0600030F392F0000E0001936F000E6D
:1024CA00946F800E956F3F0E966F8FEC31F060001F
:1024DA003CF2C9F0600040F2CAF0600044F2CBF06E
:1024EA00600048F2CCF00DEC28F059EC2AF083ECAD
:1024FA0032F0040E2ED03F01B2A1A6B1F3EF16F0CE
:10250A009AB1F3EF16F00001FDA325D0600034F371
:10251A008FF0600038F390F060003CF391F06000B7
:10252A0040F392F0000E936F000E946F800E956F39
:10253A003F0E966F8FEC31F060003CF2CDF06000F8
:10254A0040F2CEF0600044F2CFF0600048F2D0F0E2
:10255A0065D000015DD1A4EC32F083EC32F0FBECE3
:10256A002DF0600034F335F0600038F336F0600087
:10257A003CF337F0600040F338F0000E396E000E7D
:10258A003A6E800E3B6E3F0E3C6E78EC20F0600097
:10259A00D4F0CDF06000D8F0CEF06000DCF0CFF0DF
:1025AA006000E0F0D0F00DEC28F059EC2AF00001C0
:1025BA00FEB902D0050EB86FFEB3F3EF16F0060EA1
:1025CA0027D13F01B2A1A6B1F3EF16F09AB1F3EF0A
:1025DA0016F00001FDA924D0600034F335F0600044
:1025EA0038F336F060003CF337F0600040F338F01F
:1025FA00000E396E000E3A6E800E3B6E3F0E3C6E38
:10260A0078EC20F06000D4F0CDF06000D8F0CEF085
:10261A006000DCF0CFF06000E0F0D0F0000E99D757
:10262A00A4EC32F083EC32F0FBEC2DF0600034F3D2
:10263A008FF0600038F390F060003CF391F0600096
:10264A0040F392F0000E0001936F000E946F800E1B
:10265A00956F3F0E966F8FEC31F060003CF2CDF033
:10266A00600040F2CEF0600044F2CFF0600048F221
:10267A00D0F00DEC28F059EC2AF00001FEB902D096
:10268A00070EB86FFEB3AAD3080EC2D03F01B2A19B
:10269A00A6B1A4D39AB1A2D30001FEA923D06000A7
:1026AA0024F38FF0600028F390F060002CF391F08F
:1026BA00600030F392F0000E936F000E946F800E5C
:1026CA00956F3F0E966F8FEC31F060003CF2C9F0C7
:1026DA00600040F2CAF0600044F2CBF0600048F2B9
:1026EA00CCF09CD7A4EC32F083EC32F0FBEC2DF06A
:1026FA00600024F335F0600028F336F060002CF314
:10270A0037F0600030F338F0000E396E000E3A6E82
:10271A00800E3B6E3F0E3C6E78EC20F06000D4F0E9
:10272A00C9F06000D8F0CAF06000DCF0CBF06000BD
:10273A00E0F0CCF00DEC28F059EC2AF00001FDB3E2
:10274A0002D0050EB86FFDB949D3070E61D03F011B
:10275A00B2A1A6B143D39AB141D30001FEA323D0BB
:10276A00600024F335F0600028F336F060002CF3A3
:10277A0037F0600030F338F0000E396E000E3A6E12
:10278A00800E3B6E3F0E3C6E78EC20F06000D4F079
:10279A00C9F06000D8F0CAF06000DCF0CBF060004D
:1027AA00E0F0CCF03BD7A4EC32F083EC32F0FBEC57
:1027BA002DF0600024F38FF0600028F390F06000A1
:1027CA002CF391F0600030F392F0000E0001936F49
:1027DA00000E946F800E956F3F0E966F8FEC31F05E
:1027EA0060003CF2C9F0600040F2CAF0600044F2B6
:1027FA00CBF0600048F2CCF00DEC28F059EC2AF04E
:10280A000001FDB302D0060EB86FFDB9E7D2080E7B
:10281A00B86FE4D23F01B2A1A6B1E0D29AB1DED23A
:10282A000001FDA325D0600034F38FF0600038F377
:10283A0090F060003CF391F0600040F392F0000EDB
:10284A00936F000E946F800E956F3F0E966F8FEC0C
:10285A0031F060003CF2CDF0600040F2CEF0600052
:10286A0044F2CFF0600048F2D0F0030E0001B86FD6
:10287A00FEA925D0600024F38FF0600028F390F0C1
:10288A0060002CF391F0600030F392F0000E936F29
:10289A00000E946F800E956F3F0E966F8FEC31F09D
:1028AA0060003CF2C9F0600040F2CAF0600044F2F5
:1028BA00CBF0600048F2CCF0010E0001B86FFDA326
:1028CA00FEB98CD2A4EC32F083EC32F0FBEC2DF0A2
:1028DA00600034F335F0600038F336F060003CF302
:1028EA0037F0600040F338F0000E396E000E3A6E91
:1028FA00800E3B6E3F0E3C6E78EC20F06000D4F008
:10290A00CDF06000D8F0CEF06000DCF0CFF06000CF
:10291A00E0F0D0F0600024F335F0600028F336F0E0
:10292A0060002CF337F0600030F338F0000E396E97
:10293A00000E3A6E800E3B6E3F0E3C6E78EC20F035
:10294A006000D4F0C9F06000D8F0CAF06000DCF092
:10295A00CBF06000E0F0CCF00DEC28F059EC2AF056
:10296A003DD23F01B2A1A6B139D29AB137D2000104
:10297A00FDA325D0600034F38FF0600038F390F0A7
:10298A0060003CF391F0600040F392F0000E936F08
:10299A00000E946F800E956F3F0E966F8FEC31F09C
:1029AA0060003CF2CDF0600040F2CEF0600044F2EC
:1029BA00CFF0600048F2D0F0040E0001B86FFEA319
:1029CA0025D0600024F335F0600028F336F060006B
:1029DA002CF337F0600030F338F0000E396E000E39
:1029EA003A6E800E3B6E3F0E3C6E78EC20F0600033
:1029FA00D4F0C9F06000D8F0CAF06000DCF0CBF087
:102A0A006000E0F0CCF0010E0001B86FFDA3FEB348
:102A1A00E5D1A4EC32F083EC32F0FBEC2DF060004F
:102A2A0034F335F0600038F336F060003CF337F0E9
:102A3A00600040F338F0000E396E000E3A6E800ED8
:102A4A003B6E3F0E3C6E78EC20F06000D4F0CDF087
:102A5A006000D8F0CEF06000DCF0CFF06000E0F06B
:102A6A00D0F0600024F38FF0600028F390F060004B
:102A7A002CF391F0600030F392F0000E0001936F96
:102A8A00000E946F800E956F3F0E966F8FEC31F0AB
:102A9A0060003CF2C9F0600040F2CAF0600044F203
:102AAA00CBF0600048F2CCF00DEC28F059EC2AF09B
:102ABA0095D13F01B2A1A6B191D19AB18FD10001AE
:102ACA00FDA925D0600034F335F0600038F336F004
:102ADA0060003CF337F0600040F338F0000E396EC6
:102AEA00000E3A6E800E3B6E3F0E3C6E78EC20F084
:102AFA006000D4F0CDF06000D8F0CEF06000DCF0D9
:102B0A00CFF06000E0F0D0F0030E0001B86FFEA92C
:102B1A0025D0600024F38FF0600028F390F0600065
:102B2A002CF391F0600030F392F0000E936F000ED8
:102B3A00946F800E956F3F0E966F8FEC31F06000A8
:102B4A003CF2C9F0600040F2CAF0600044F2CBF0F7
:102B5A00600048F2CCF0020E0001B86FFDA9FEB980
:102B6A003DD1A4EC32F083EC32F0FBEC2DF06000A6
:102B7A0034F38FF0600038F390F060003CF391F08A
:102B8A00600040F392F0000E0001936F000E946F04
:102B9A00800E956F3F0E966F8FEC31F060003CF21D
:102BAA00CDF0600040F2CEF0600044F2CFF0600059
:102BBA0048F2D0F0600024F335F0600028F336F0D4
:102BCA0060002CF337F0600030F338F0000E396EF5
:102BDA00000E3A6E800E3B6E3F0E3C6E78EC20F093
:102BEA006000D4F0C9F06000D8F0CAF06000DCF0F0
:102BFA00CBF06000E0F0CCF00DEC28F059EC2AF0B4
:102C0A00EDD03F01B2A1A6B1E9D09AB1E7D0000157
:102C1A00FDA925D0600034F335F0600038F336F0B2
:102C2A0060003CF337F0600040F338F0000E396E74
:102C3A00000E3A6E800E3B6E3F0E3C6E78EC20F032
:102C4A006000D4F0CDF06000D8F0CEF06000DCF087
:102C5A00CFF06000E0F0D0F0040E0001B86FFEA3E0
:102C6A0025D0600024F335F0600028F336F06000C8
:102C7A002CF337F0600030F338F0000E396E000E96
:102C8A003A6E800E3B6E3F0E3C6E78EC20F0600090
:102C9A00D4F0C9F06000D8F0CAF06000DCF0CBF0E4
:102CAA006000E0F0CCF0020E0001B86FFDA9FEB39F
:102CBA0095D0A4EC32F083EC32F0FBEC2DF06000FE
:102CCA0034F38FF0600038F390F060003CF391F039
:102CDA00600040F392F0000E0001936F000E946FB3
:102CEA00800E956F3F0E966F8FEC31F060003CF2CC
:102CFA00CDF0600040F2CEF0600044F2CFF0600008
:102D0A0048F2D0F0600024F38FF0600028F390F0CE
:102D1A0060002CF391F0600030F392F0000E000195
:102D2A00936F000E946F800E956F3F0E966F8FEC27
:102D3A0031F060003CF2C9F0600040F2CAF0600075
:102D4A0044F2CBF0600048F2CCF00DEC28F059ECDC
:102D5A002AF044D00001B851000AD8B427EF11F084
:102D6A00010AD8B480EF12F0030AD8B42AD4010AAF
:102D7A00D8B48CD4070AD8B4EAD4010AD8B44AD54C
:102D8A00030AD8B4EED5010AD8B493D60F0AD8B438
:102D9A0038D724D0A2EC35F00001FDB709D0000ED7
:102DAA00E86F010EE76F3F01AC8F090E0001B56FA6
:102DBA00FDB54FD0E769E8693F01AC8F0A0E0BD029
:102DCA00FDA747D03F01AC9F000E05D0FDA541D01D
:102DDA003F01AC9F000E0001B56F3BD00001B55119
:102DEA00000AD8B4D7D7090AD8B4EAD7030AD8B49C
:102DFA00EDD72FD0FEBB07D0DD4BDE2B43EC35F0F1
:102E0A000B0E0001B66FFEB18DD0DD07D8A0DE072C
:102E1A0043EC35F00C0E00011AD03F019AB182D072
:102E2A000001FEBB13D043EC35F00001DD4BDE2B75
:102E3A0079D03F019AB176D00001FEB107D043ECB8
:102E4A0035F00001DD07D8A0DE076CD0000EB66FA2
:102E5A0069D0B651000AD8B4CDD70B0AD8B4DDD799
:102E6A00070AD8B4E6D75ED073EC35F00001FDBB93
:102E7A000CD0000EEE6F010EED6FE969EA693F01B1
:102E8A00A08F948F0D0E0001B76FFDB10CD0ED69C4
:102E9A00EE69000EEA6F010EE96F3F01A08F948F71
:102EAA000E0E0001B76FFEB70ED0000EEE6F010EC8
:102EBA00ED6F000EEA6F010EE96F3F01A08F948F4C
:102ECA000F0E0001B76FFEB51EEF11F0ED69EE6946
:102EDA00E969EA693F01A08F948F100E1FD0FDABFC
:102EEA001EEF11F03F01A09F949F000E17D0FDA185
:102EFA001EEF11F03F01A09F949F000E0FD0FEA776
:102F0A001EEF11F03F01A09F949F000E07D0FEA56F
:102F1A001EEF11F03F01A09F949F000E0001B76FB2
:102F2A001EEF11F00001B751000AD8B49DD70D0A5F
:102F3A00D8B4D5D7030AD8B4DAD7010AD8B4DFD7B8
:102F4A001F0AD8B4E4D71EEF11F0600054F31CF046
:102F5A00600058F31DF060005CF31EF0600060F33F
:102F6A001FF0600064F320F0600068F321F0600055
:102F7A006CF322F0600070F323F045EC25F060005A
:102F8A0070F06AF1600074F06BF1600078F06CF137
:102F9A0060007CF06DF16000A8F59AF06000ACF575
:102FAA009BF06000B0F59CF06000B4F59DF0CEECAB
:102FBA0023F0600068F248F160006CF249F16000A9
:102FCA0070F24AF1600074F24BF1600064F368F049
:102FDA00600068F369F060006CF36AF0600070F3F7
:102FEA006BF0600064F364F0600068F365F0600001
:102FFA006CF366F0600070F367F09FEC1EF06000FF
:10300A0090F135F0600094F136F0600098F137F0F5
:10301A0060009CF138F0600054F368F0600058F3E7
:10302A0069F060005CF36AF0600060F36BF06000C6
:10303A0054F364F0600058F365F060005CF366F0E6
:10304A00600060F367F09FEC1EF0600090F139F0C9
:10305A00600094F13AF0600098F13BF060009CF156
:10306A003CF078EC20F06000D4F07DF06000D8F0FD
:10307A007EF06000DCF07FF06000E0F080F038EC79
:10308A0022F06000F4F14CF16000F8F14DF16000BB
:10309A00FCF14EF1600000F24FF1600044F3A8F039
:1030AA00600048F3A9F060004CF3AAF0600050F306
:1030BA00ABF090EC2EF06000A0F25EF16000A4F29A
:1030CA005FF16000A8F260F16000ACF261F13D0EC0
:1030DA000001686F0A0E696FAD0E6A6F420E6B6F60
:1030EA00600078F564F060007CF565F0600080F5BA
:1030FA0066F0600084F567F09FEC1EF0600090F1C6
:10310A001CF0600094F11DF0600098F11EF0600060
:10311A009CF11FF0FEEC32F0600070F035F06000B8
:10312A0074F036F0600078F037F060007CF038F028
:10313A00600030F539F0600034F53AF0600038F597
:10314A003BF060003CF53CF078EC20F06000D4F0F5
:10315A00CDF06000D8F0CEF06000DCF0CFF0600077
:10316A00E0F0D0F0600044F397F0600048F398F084
:10317A0060004CF399F0600050F39AF0A1EC1CF057
:10318A0060005CF262F1600060F263F1600064F278
:10319A0064F1600068F265F1850E396EAB0E3A6E25
:1031AA00440E3B6E430E3C6E3D0E0001686F0A0EE4
:1031BA00696FAD0E6A6F420E6B6F600088F564F03E
:1031CA0060008CF565F0600090F566F0600094F59B
:1031DA0067F09FEC1EF0600090F135F0600094F10A
:1031EA0036F0600098F137F060009CF138F078EC26
:1031FA0020F06000D4F01CF06000D8F01DF06000F0
:10320A00DCF01EF06000E0F01FF0FEEC32F060002F
:10321A0070F066F1600074F067F1600078F068F1B0
:10322A0060007CF069F1600098F535F060009CF56B
:10323A0036F06000A0F537F06000A4F538F06000C1
:10324A0050F539F0600054F53AF0600058F53BF05B
:10325A0060005CF53CF078EC20F06000D4F0C9F036
:10326A006000D8F0CAF06000DCF0CBF06000E0F05B
:10327A00CCF0600024F31CF0600028F31DF060001D
:10328A002CF31EF0600030F31FF0600034F320F0DE
:10329A00600038F321F060003CF322F0600040F354
:1032AA0023F045EC25F0600070F06AF1600074F0DC
:1032BA006BF1600078F06CF160007CF06DF16000F9
:1032CA00A8F59AF06000ACF59BF06000B0F59CF0B0
:1032DA006000B4F59DF0CEEC23F0600068F2C5F012
:1032EA0060006CF2C6F0600070F2C7F0600074F221
:1032FA00C8F0600034F368F0600038F369F06000E9
:10330A003CF36AF0600040F36BF0600034F364F061
:10331A00600038F365F060003CF366F0600040F34B
:10332A0067F09FEC1EF0600090F135F0600094F1B8
:10333A0036F0600098F137F060009CF138F06000D8
:10334A0024F368F0600028F369F060002CF36AF057
:10335A00600030F36BF0600024F364F0600028F33F
:10336A0065F060002CF366F0600030F367F09FECC4
:10337A001EF0600090F139F0600094F13AF06000BC
:10338A0098F13BF060009CF13CF078EC20F0600092
:10339A00D4F0F5F06000D8F0F6F06000DCF0F7F059
:1033AA006000E0F0F8F06000D4F320F06000D8F399
:1033BA0021F06000DCF322F06000E0F323F0AE0EAF
:1033CA001C6EF90E1D6EF60E1E6E470E1F6E45EC34
:1033DA0025F0600070F035F0600074F036F060009F
:1033EA0078F037F060007CF038F0000E396E000E8D
:1033FA003A6E800E3B6EBF0E3C6E78EC20F0600099
:10340A00D4F0F5F06000D8F0F6F06000DCF0F7F0E8
:10341A006000E0F0F8F06000D4F37DF06000D8F3CB
:10342A007EF06000DCF37FF06000E0F380F038ECBF
:10343A0022F06000F4F19AF06000F8F19BF060006D
:10344A00FCF19CF0600000F29DF0CEEC23F06000ED
:10345A0068F2F5F060006CF2F6F0600070F2F7F0D6
:10346A00600074F2F8F06000D4F335F06000D8F32D
:10347A0036F06000DCF337F06000E0F338F060000B
:10348A0014F339F0600018F33AF060001CF33BF0D3
:10349A00600020F33CF078EC20F06000D4F0C1F03A
:1034AA006000D8F0C2F06000DCF0C3F06000E0F029
:1034BA00C4F06000D4F31CF06000D8F31DF0600083
:1034CA00DCF31EF06000E0F31FF0FEEC32F0600067
:1034DA0070F035F0600074F036F0600078F037F084
:1034EA0060007CF038F0600014F339F0600018F3E3
:1034FA003AF060001CF33BF0600020F33CF078ECFB
:10350A0020F06000D4F044F16000D8F045F160008A
:10351A00DCF046F16000E0F047F11200110E166E81
:10352A003C0E156ECB0EE82EFED7152EFCD7162EA6
:10353A00FAD700F0000E19EC33F0000E266E130EC7
:10354A00266401D025D02650020D010EF326000E66
:10355A00F422390EF324F66E200EF420F76EF86A80
:10356A00000EF82208006F00D4FF0FF02650020D5B
:10357A00390EF324F66E200EF420F76EF86A000E68
:10358A00F8220800F550200911EC35F0262AD7D781
:10359A00000E276E020E276401D019D02750010DA4
:1035AA00750EF324F66E200EF420F76EF86A000EFC
:1035BA00F8222750010D1A0EF324D96E000EF420BA
:1035CA00DA6E08006F00D7FFDFFF272AE3D71A0E4B
:1035DA000F6E000E106E030E116E2A0EE1EC32F021
:1035EA00000E276E020E276401D019D02750010D54
:1035FA00720EF324F66E200EF420F76EF86A000EAF
:10360A00F8222750010D1A0EF324D96E000EF42069
:10361A00DA6E08006F00D7FFDFFF272AE3D71A0EFA
:10362A000F6E000E106E030E116E2B0EE1EC32F0CF
:10363A00000E276E020E276401D019D02750010D03
:10364A00750EF324F66E200EF420F76EF86A000E5B
:10365A00F8222750010D1A0EF324D96E000EF42019
:10366A00DA6E08006F00D7FFDFFF272AE3D71A0EAA
:10367A000F6E000E106E030E116E300EE1EC32F07A
:10368A001D0E02EC35F0266E2650D8A405D0730E16
:10369A000F6E500E11EC35F0160E266E150E2660C2
:1036AA0001D025D02650020D010EF326000EF42279
:1036BA00390EF324F66E200EF420F76EF86A000E27
:1036CA00F82208006F00D4FF0FF02650020D390EC1
:1036DA00F324F66E200EF420F76EF86A000EF82234
:1036EA000800F550200911EC35F02606D7D7010E4F
:1036FA0019EC33F0000E266E080E266401D045D070
:10370A00000E276E030E276401D033D02750010D17
:10371A001A0EF324D96E000EF420DA6E2650040D28
:10372A00010EF324F66E200EF420F76EF86A000EEE
:10373A00F82209006F00D4FF15F009006F00D4FFCA
:10374A0016F009006F00D4FF17F009006F00D4FFCC
:10375A0018F02750080DF350E82A05D0D8901832EF
:10376A00173216321532E82EF9D71550DF6E272A8E
:10377A00C9D71A0E0F6E000E106E040E116E265067
:10378A002009E1EC32F0262AB7D7090E266E0D0E73
:10379A00266401D04DD0000E276E030E276401D097
:1037AA003BD02750010D1A0EF324D96E000EF420D7
:1037BA00DA6E2650040D010EF324F66E200EF42064
:1037CA00F76EF86A000EF82209006F00D4FF15F0B0
:1037DA0009006F00D4FF16F009006F00D4FF17F03C
:1037EA0009006F00D4FF18F027500008196ED8900E
:1037FA001936D8901936D89019361950180FE82A60
:10380A0005D0D8901832173216321532E82EF9D769
:10381A001550DF6E272AC1D71A0E0F6E000E106ED2
:10382A00040E116E26502009E1EC32F0262AAFD799
:10383A00000E276E0A0E276401D019D02750010DF9
:10384A00670EF324F66E200EF420F76EF86A000E67
:10385A00F8222750010D1A0EF324D96E000EF42017
:10386A00DA6E08006F00D7FFDFFF272AE3D71A0EA8
:10387A000F6E000E106E0B0E116E2E0EE1EC32F072
:10388A00000E276E030E276401D02ED02750010D9B
:10389A001A0EF324D96E000EF420DA6E110EF66EAB
:1038AA00200EF76E000EF86E09006F00D4FF15F0B7
:1038BA0009006F00D4FF16F009006F00D4FF17F05B
:1038CA0009006F00D4FF18F02750080DF350E82ABA
:1038DA0005D0D8901832173216321532E82EF9D799
:1038EA001550DF6E272ACED71A5006091A6E1A0EFD
:1038FA000F6E000E106E040E116E240EE1EC32F003
:10390A001A50F90B1A6E1A0E0F6E000E106E040E74
:10391A00116E240EE1EC32F0050E166E0F0E156EC6
:10392A00F10EE82EFED7152EFCD7162EFAD700F088
:10393A00000E19EC33F01200000E0001A76F9AAFC7
:10394A001DD060005CF21CF0600060F21DF06000A7
:10395A0064F21EF0600068F21FF0FEEC32F06000C4
:10396A0070F097F0600074F098F0600078F099F0C9
:10397A0060007CF09AF0010E0001A76F60005CF213
:10398A0064F0600060F265F0600064F266F0600066
:10399A0068F267F0830E686FF90E696F220E6A6F1C
:1039AA003E0E6B6F9FEC1EF0600090F197F0600086
:1039BA0094F198F0600098F199F060009CF19AF007
:1039CA0060005CF28FF0600060F290F0600064F2D8
:1039DA0091F0600068F292F060005CF285F060009D
:1039EA0060F286F0600064F287F0600068F288F0A6
:1039FA000AEC2CF0600014F293F0600018F294F0D4
:103A0A0060001CF295F0600020F296F08FEC31F025
:103A1A0060003CF297F0600040F298F0600044F2D7
:103A2A0099F0600048F29AF060005CF264F060007D
:103A3A0060F265F0600064F266F0600068F267F0B8
:103A4A00000E0001686F000E696F800E6A6F400EEB
:103A5A006B6F9FEC1EF0600090F197F0600094F19C
:103A6A0098F0600098F199F060009CF19AF0000ECD
:103A7A000E6E000E0F6E000E106E400E116E60007C
:103A8A005CF212F0600060F213F0600064F214F06D
:103A9A00600068F215F063EC2DF0D8B02BD060000E
:103AAA005CF28FF0600060F290F0600064F291F0D6
:103ABA00600068F292F0000E0001936F000E946F9E
:103ACA00000E956F400E966F8FEC31F060003CF25D
:103ADA0097F0600040F298F0600044F299F06000BC
:103AEA0048F29AF00001A751D8A402D0010E01D0E1
:103AFA00000EA76F000E0E6E000E0F6E800E106E77
:103B0A003F0E116E60005CF212F0600060F213F07A
:103B1A00600064F214F0600068F215F063EC2DF0B6
:103B2A00D8B030D060005CF21CF0600060F21DF08A
:103B3A00600064F21EF0600068F21FF0FEEC32F0E2
:103B4A00600070F035F0600074F036F0600078F0D4
:103B5A0037F060007CF038F0000E396E000E3A6ED5
:103B6A00000E3B6E400E3C6E78EC20F06000D4F004
:103B7A0097F06000D8F098F06000DCF099F06000EF
:103B8A00E0F09AF060005CF264F0600060F265F0C8
:103B9A00600064F266F0600068F267F060005CF250
:103BAA0068F0600060F269F0600064F26AF0600038
:103BBA0068F26BF09FEC1EF0600090F1A3F06000D9
:103BCA0094F1A4F0600098F1A5F060009CF1A6F0D1
:103BDA0060008CF27DF0600090F27EF0600094F25A
:103BEA007FF0600098F280F0B80E0001816F200E1D
:103BFA00826F000E846F030E836FBBEC2CF06000A3
:103C0A00F4F19BF06000F8F19CF06000FCF19DF08B
:103C1A00600000F29EF060006CF220F0600070F22A
:103C2A0021F0600074F222F0600078F223F0000EB6
:103C3A000001846F040E836F900E816F200E826FD5
:103C4A0060008CF27DF0600090F27EF0600094F2E9
:103C5A007FF0600098F280F0BBEC2CF06000F4F189
:103C6A001CF06000F8F11DF06000FCF11EF060002D
:103C7A0000F21FF045EC25F0600070F09FF0600044
:103C8A0074F0A0F0600078F0A1F060007CF0A2F07F
:103C9A0060005CF264F0600060F265F0600064F25B
:103CAA0066F0600068F267F060007CF268F060001D
:103CBA0080F269F0600084F26AF0600088F26BF0CA
:103CCA009FEC1EF0600090F197F0600094F198F07C
:103CDA00600098F199F060009CF19AF00001A751F8
:103CEA00D8B41BD060005CF21CF0600060F21DF0DA
:103CFA00600064F21EF0600068F21FF0FEEC32F021
:103D0A00600070F097F0600074F098F0600078F04E
:103D1A0099F060007CF09AF0120060005CF297F073
:103D2A00600060F298F0600064F299F0600068F256
:103D3A009AF0120000016751800B706F6751672576
:103D4A00766F66BF76817651D8B40DD07629D8A41D
:103D5A0008D0000E646F000E656F000E666F000ECD
:103D6A00676F668F08D0000E646F000E656F000ED5
:103D7A00666F000E676F6B51800B701B6B516B2562
:103D8A00716F6ABF71817151D8B40DD07129D8A4ED
:103D9A0008D0000E686F000E696F000E6A6F000E81
:103DAA006B6F6A8F08D0000E686F000E696F000E85
:103DBA006A6F000E6B6F7151D8B403D07651D8A4D4
:103DCA0009D0000E646F000E656F000E666F000E5C
:103DDA00676F12006A5164036F00CCFF7BF06F00BB
:103DEA00D0FF7CF07B51726F736B746B756B7C5177
:103DFA00776F786B796B7A6B695165036F00CCFFCB
:103E0A007BF06F00D0FF7CF07B517227000E73238A
:103E1A00742375237C517727000E782379237A231C
:103E2A00685166036F00CCFF7BF06F00D0FF7CF017
:103E3A007B517227000E7323742375237C517727D5
:103E4A00000E782379237A236000D0F175F06000A0
:103E5A00CCF174F06000C8F173F0726B68516503BD
:103E6A006F00CCFF7BF06F00D0FF7CF07B51722794
:103E7A007C517323000E7423000E75236951640369
:103E8A006F00CCFF7BF06F00D0FF7CF07B51722774
:103E9A007C517323000E7423000E75236000D0F149
:103EAA0075F06000CCF174F06000C8F173F0726BC9
:103EBA00685164036F00CCFF7BF06F00D0FF7CF089
:103ECA007B5172277C517323000E7423000E7523D5
:103EDA006A5165036F00CCFF7BF06F00D0FF7CF066
:103EEA007B5177277C517823000E7923000E7A23A1
:103EFA00695166036F00CCFF7BF06F00D0FF7CF046
:103F0A007B5177277C517823000E7923000E7A2380
:103F1A006A5166036F00CCFF7BF06F00D0FF7CF024
:103F2A007B516C6F7C516D6F6E6B6F6B6000B8F17B
:103F3A006FF06000B4F16EF06000B0F16DF06C6B80
:103F4A006C5177276D5178236E5179236F517A23FB
:103F5A006000C8F16CF06000CCF16DF06000D0F147
:103F6A006EF06000D4F16FF0190E05D0D8906F335F
:103F7A006E336D336C33E82EF9D76C5177276D5158
:103F8A0078236E5179236F517A236000D0F175F04E
:103F9A006000CCF174F06000C8F173F0726B71517B
:103FAA006000D8F16CF06D6B6C27000E6D23820EE9
:103FBA006C257B6FFF0E6D217C6F0FD0D890773701
:103FCA00783779377A3775BF7781D89072377337F0
:103FDA00743775377B07D8A07C0779AFEFD7000E07
:103FEA00716F75AF16D0FF0E72156C6FFF0E7315D9
:103FFA006D6FFF0E74156E6F7F0E75156F6F6C51B6
:10400A006D116E116F11D8A402D077A102D0010EE2
:10401A00716F7151D8B427D0010E7727000E78231B
:10402A0079237A237AA11FD06000DCF16CF060005A
:10403A00E0F16DF06000E4F16EF06000E8F16FF01D
:10404A006F356F336E336D336C336000B0F177F0D8
:10405A006000B4F178F06000B8F179F06000BCF16A
:10406A007AF07B4B7C2B7CBF0DD07C5103E17B2902
:10407A00D8A008D0000E776F000E786F800E796F87
:10408A007F0E21D07CBF05D07C510EE17B05D8B0D4
:10409A000BD0000E776F000E786F000E796F000E4E
:1040AA007A6F000E706F10D06000ECF176F0FF0EA0
:1040BA007717FF0E78177F0E7917000E7A1776B1E9
:1040CA00798FD89076317A6F70517A136000DCF16B
:1040DA0064F06000E0F165F06000E4F166F0600011
:1040EA00E8F167F012003850800B0001606F385019
:1040FA003824626F37BE62816251D8B40DD062290A
:10410A00D8A408D0000E356E000E366E000E376E3B
:10411A00000E386E378E06D0000E356E000E366EE3
:10412A00000E376E000E386E3C50800B616F605186
:10413A006119D8A4608D3C503C24616F3BBE6181FB
:10414A006151D8B40DD06129D8A408D0000E396EB7
:10415A00000E3A6E000E3B6E000E3C6E3B8E06D091
:10416A00000E396E000E3A6E000E3B6E000E3C6E6B
:10417A006251615DD8B031D060AD02D0800E601B53
:10418A00600088F163F0600084F162F060008CF1F5
:10419A0061F06000D4F063F06000E4F035F0600094
:1041AA008CF139F06000D8F063F06000E8F036F086
:1041BA0060008CF13AF06000DCF063F06000ECF033
:1041CA0037F060008CF13BF06000E0F063F06000D3
:1041DA00F0F038F060008CF13CF0000E636F625131
:1041EA003D6E3E6A3D1E3E1E3D4A3E2A61513F6E6D
:1041FA00406A3D503F263E50402240BE2DD040509E
:10420A0004E11A0E3F5CD8A027D03550361037107B
:10421A003810D8B402D0010E01D0000E636F000E20
:10422A00356E000E366E000E376E000E386E600068
:10423A0084F162F015D063A105D0D89063310109E9
:10424A00636F02D0D890633335B0638F3834383215
:10425A00373236323532622B6151625DD8A0EBD7E4
:10426A0060BD29D06251D8A409D0000E356E000E67
:10427A00366E000E376E000E386E12003950352633
:10428A003A5036223B5037223C50382238A087D049
:10429A0063A106D0D890633363510109636F02D0DA
:1042AA00D890633335B0638F383438323732363288
:1042BA003532622B74D03950355C3A5036583B50FF
:1042CA0037583850800A3D6E3C50800A3D58D8B065
:1042DA003AD06000D4F03DF06000D8F03EF06000C3
:1042EA00DCF03FF06000E0F040F03D1E3E1E3F1E55
:1042FA00401E3D2A000E3E223F22402239503D24D4
:10430A00416E3A503E20426E3B503F20436E3C5035
:10431A004020446EFF0E4124356EFF0E4220366E59
:10432A00FF0E4320376EFF0E4420386E800E601B4E
:10433A00636D6351D8A40FD0010E3526000E3622C4
:10434A003722382208D03950355E3A50365A3B5017
:10435A00375A3C50385A3550361037103810D8A4CE
:10436A001CD06351D8A419D0000E356E000E366EDB
:10437A00000E376E000E386E1200D890353636367B
:10438A003736383663BF358063A102D0D88001D072
:10439A00D89063376251D8A4620737AEEED7000EC1
:1043AA00616F63AF0BD060008CF13DF07F0E3D165C
:1043BA00D8A402D035A002D0010E616F6151D8B4E1
:1043CA0028D0010E3526000E36223722382238A090
:1043DA0020D06000D4F03DF06000D8F03EF06000DC
:1043EA00DCF03FF06000E0F040F0403440323F3211
:1043FA003E323D326000F4F035F06000F8F036F0FD
:10440A006000FCF037F0600000F138F06229D8A4AF
:10441A00622B6229D8B403D06251D8A40DD0000E01
:10442A00356E000E366E000E376E000E386E625113
:10443A00D8A402D0000E606F62A102D0378E01D0DC
:10444A00379ED8906231386E60BF388E6000D4F0E3
:10445A0035F06000D8F036F06000DCF037F060002C
:10446A00E0F038F0120000018051800B856F805116
:10447A0080258B6F7FBF8B8160002CF290F0916B4F
:10448A00FF0E7D15966FFF0E7E15976F7F0E7F15B7
:10449A00986F000E8015996F90519111D8B405D07C
:1044AA00988F90299111D8A408D0000E966F000E0B
:1044BA00976F000E986F000E996F90519111D8A4C2
:1044CA0009D0000E7D6F000E7E6F000E7F6F000E0A
:1044DA00806F12008551D8B41ED0000E926F000E64
:1044EA00936F400E946F000E956F800E9413FF0E1B
:1044FA009513000E0101596F210E586F600048F2A2
:10450A007DF060004CF27EF0600050F27FF06000B7
:10451A0054F280F01200000190299111D8A415D00C
:10452A00000E926F000E936F800E946F7F0E956F40
:10453A00600048F27DF060004CF27EF0600050F2BC
:10454A007FF0600054F280F01200810E9027FF0E77
:10455A0091239051010B8B6F9135913390337F0EDC
:10456A009027000E9123D8909635876F9735886FDC
:10457A009835896F99358A6F000E966F000E976F7E
:10458A00000E986F000E996F000E8C6F000E8D6FE3
:10459A00000E8E6F010E8F6F8B51D8B405D0D89054
:1045AA008737883789378A37000E866F5ED08C51F5
:1045BA0096138D5197138E5198138F5199139651C3
:1045CA00875D975188599851895999518A59D8A024
:1045DA0011D09651875F9751885B9851895B9951A1
:1045EA008A5B8C5196278D5197238E5198238F5130
:1045FA00992318D0600030F281F0600034F282F022
:10460A00600038F283F060003CF284F0811F821F60
:10461A00831F841F815196178251971783519817C8
:10462A0084519917600030F281F0600034F282F010
:10463A00600038F283F060003CF284F0D890843352
:10464A00833382338133600004F28CF0600008F215
:10465A008DF060000CF28EF0600010F28FF0D890AE
:10466A008737883789378A37862B180E86659FD70A
:10467A00600058F281F060005CF282F0600060F243
:10468A0083F0600064F284F0D890843383338233F9
:10469A008133600004F296F0600008F297F060003F
:1046AA000CF298F0600010F299F0010E96158C6FDA
:1046BA00000E97158D6F000E98158E6F000E9915C6
:1046CA008F6F600058F281F060005CF282F0600047
:1046DA0060F283F0600064F284F0D890843383330C
:1046EA0082338133600004F296F0600008F297F09A
:1046FA0060000CF298F0600010F299F08C51962745
:10470A008D5197238E5198238F51992399A11FD0A8
:10471A00600058F281F060005CF282F0600060F2A2
:10472A0083F0600064F284F0D89084338333823358
:10473A008133600004F296F0600008F297F060009E
:10474A000CF298F0600010F299F0904B912BFF0E4A
:10475A009615926FFF0E9715936F7F0E9815946FAB
:10476A00000E9915956F600040F28BF08BB1948F13
:10477A00D8908B31956F959F600048F27DF060006C
:10478A004CF27EF0600050F27FF0600054F280F04C
:10479A001200600068F220F060006CF221F0600004
:1047AA0070F222F0600074F223F0BFEC31F0600086
:1047BA0080F0ABF0600084F0ACF0600088F0ADF0FF
:1047CA0060008CF0AEF00001AB51AC11AD11AE112E
:1047DA00D8A409D0000E9A6F000E9B6F000E9C6F32
:1047EA00000E9D6F1200000E0E6E000E0F6E800EF0
:1047FA00106E3F0E116E6000ACF212F06000B0F263
:10480A0013F06000B4F214F06000B8F215F063EC33
:10481A002DF0D8B002D0010E01D0000E0001A66F13
:10482A00A651D8B422D0000E1C6E000E1D6E800E4A
:10483A001E6E3F0E1F6E6000ACF220F06000B0F2F8
:10484A0021F06000B4F222F06000B8F223F045ECE7
:10485A0025F0600070F0ABF0600074F0ACF060001E
:10486A0078F0ADF060007CF0AEF06000ACF264F07D
:10487A006000B0F265F06000B4F266F06000B8F271
:10488A0067F06000ACF268F06000B0F269F06000B6
:10489A00B4F26AF06000B8F26BF09FEC1EF06000B0
:1048AA0090F1A7F0600094F1A8F0600098F1A9F0E7
:1048BA0060009CF1AAF060009CF27DF06000A0F21A
:1048CA007EF06000A4F27FF06000A8F280F0A40EEF
:1048DA000001816F200E826F000E846F040E836FB9
:1048EA00BBEC2CF06000F4F19EF06000F8F19FF050
:1048FA006000FCF1A0F0600000F2A1F060009CF200
:10490A007DF06000A0F27EF06000A4F27FF060000B
:10491A00A8F280F0780E0001816F200E826F000EDF
:10492A00846F050E836FBBEC2CF06000F4F1A2F0EB
:10493A006000F8F1A3F06000FCF1A4F0600000F25E
:10494A00A5F06000ACF264F06000B0F265F06000BF
:10495A00B4F266F06000B8F267F0600078F220F016
:10496A0060007CF221F0600080F222F0600084F2A4
:10497A0023F0600088F21CF060008CF21DF06000E9
:10498A0090F21EF0600094F21FF045EC25F06000F2
:10499A0070F068F0600074F069F0600078F06AF016
:1049AA0060007CF06BF09FEC1EF0600090F1ABF0C1
:1049BA00600094F1ACF0600098F1ADF060009CF1F9
:1049CA00AEF00001A651D8B430D06000ACF21CF0B1
:1049DA006000B0F21DF06000B4F21EF06000B8F2A0
:1049EA001FF0FEEC32F0600070F035F0600074F0F9
:1049FA0036F0600078F037F060007CF038F0DB0EBB
:104A0A00396E0F0E3A6EC90E3B6E3F0E3C6E78EC55
:104A1A0020F06000D4F0ABF06000D8F0ACF0600099
:104A2A00DCF0ADF06000E0F0AEF000019DBF0DD00B
:104A3A006000ACF29AF06000B0F29BF06000B4F251
:104A4A009CF06000B8F29DF012006000ACF21CF01D
:104A5A006000B0F21DF06000B4F21EF06000B8F21F
:104A6A001FF0FEEC32F0600070F09AF0600074F013
:104A7A009BF0600078F09CF060007CF09DF01200E2
:104A8A001F50800B286E1F501F24336E1EBE3380AA
:104A9A003350D8B40DD03328D8A408D0000E1C6ED9
:104AAA00000E1D6E000E1E6E000E1F6E1E8E06D0AC
:104ABA00000E1C6E000E1D6E000E1E6E000E1F6E86
:104ACA002350800B281A23502324346E22BE3480AC
:104ADA003450D8B40DD03428D8A408D0000E206E93
:104AEA00000E216E000E226E000E236E228E06D05C
:104AFA00000E206E000E216E000E226E000E236E36
:104B0A002050211022102310D8A419D0000E1C6E98
:104B1A00000E1D6E000E1E6E000E1F6E800E1E12FF
:104B2A007F0E1F12600070F01CF0600074F01DF020
:104B3A00600078F01EF060007CF01FF01200335025
:104B4A00D8A415D0000E1C6E000E1D6E000E1E6E2F
:104B5A00000E1F6E600070F01CF0600074F01DF013
:104B6A00600078F01EF060007CF01FF012003450F4
:104B7A00246E256A241E251E244A252A3350266EB1
:104B8A00276A24502626255027227F0E26242D6E9A
:104B9A00000E27202E6E600070F029F0600074F07D
:104BAA002AF0600078F02BF060007CF02CF0000E08
:104BBA001C6E000E1D6E000E1E6E000E1F6E000E85
:104BCA002F6E000E306E000E316E000E326E000E29
:104BDA00346E28D03450D8B411D0D89029362A3619
:104BEA002B362C36D8901C361D361E361F3632BE52
:104BFA001C80D8902F363036313632362050295C18
:104C0A0021502A5822502B5823502C58D8A009D06A
:104C1A00328C2050295E21502A5A22502B5A235076
:104C2A002C5A342A190E3464D5D729502A102B103D
:104C3A002C10D8B411D02F800FD0D8901C361D3626
:104C4A001E361F3632BE1C80D8902F36303631368B
:104C5A0032362D06D8A02E061EAEEFD7000E346EC1
:104C6A0032AE16D0FF0E2F14246EFF0E3014256EAE
:104C7A00FF0E3114266E7F0E3214276E2450251033
:104C8A0026102710D8A402D01CA002D0010E346E20
:104C9A003450D8B427D0010E1C26000E1D221E2225
:104CAA001F221FA01FD0600070F024F0600074F073
:104CBA0025F0600078F026F060007CF027F02734B9
:104CCA002732263225322432600090F01CF0600030
:104CDA0094F01DF0600098F01EF060009CF01FF048
:104CEA002D4A2E2A2EBE10D02E5003E12D28D8A0F0
:104CFA000BD0000E2E6E2D68000E1C6E000E1D6E5F
:104D0A00000E1E6E000E1F6E2EBE05D02E5011E133
:104D1A002D04D8B00ED0000E2E6E000E2D6E000E91
:104D2A001C6E000E1D6E000E1E6E000E1F6E000E13
:104D3A00286E6000B4F033F033A002D01E8E01D08A
:104D4A001E9ED89033301F6E28501F12600070F0DC
:104D5A001CF0600074F01DF0600078F01EF0600036
:104D6A007CF01FF01200600024F31CF0600028F3AE
:104D7A001DF060002CF31EF0600030F31FF060009D
:104D8A0034F320F0600038F321F060003CF322F0A5
:104D9A00600040F323F045EC25F0600070F0AFF0BE
:104DAA00600074F0B0F0600078F0B1F060007CF060
:104DBA00B2F06000BCF29AF06000C0F29BF06000B2
:104DCA00C4F29CF06000C8F29DF0CEEC23F06000C3
:104DDA0068F2C5F060006CF2C6F0600070F2C7F0CD
:104DEA00600074F2C8F0600034F368F0600038F3D1
:104DFA0069F060003CF36AF0600040F36BF0600019
:104E0A0034F364F0600038F365F060003CF366F058
:104E1A00600040F367F09FEC1EF0600090F135F0FF
:104E2A00600094F136F0600098F137F060009CF170
:104E3A0038F0600024F368F0600028F369F060003D
:104E4A002CF36AF0600030F36BF0600024F364F036
:104E5A00600028F365F060002CF366F0600030F320
:104E6A0067F09FEC1EF0600090F139F0600094F159
:104E7A003AF0600098F13BF060009CF13CF078EC6D
:104E8A0020F06000D4F0F5F06000D8F0F6F0600091
:104E9A00DCF0F7F06000E0F0F8F06000D4F320F006
:104EAA006000D8F321F06000DCF322F06000E0F348
:104EBA0023F0AE0E1C6EF90E1D6EF60E1E6E470E18
:104ECA001F6E45EC25F0600070F035F0600074F05C
:104EDA0036F0600078F037F060007CF038F0000EB1
:104EEA00396E000E3A6E800E3B6EBF0E3C6E78EC49
:104EFA0020F06000D4F0F5F06000D8F0F6F0600021
:104F0A00DCF0F7F06000E0F0F8F06000D4F37DF038
:104F1A006000D8F37EF06000DCF37FF06000E0F31D
:104F2A0080F038EC22F06000F4F19AF06000F8F1B9
:104F3A009BF06000FCF19CF0600000F29DF0CEEC6A
:104F4A0023F0600068F2F5F060006CF2F6F06000A1
:104F5A0070F2F7F0600074F2F8F06000D4F335F004
:104F6A006000D8F336F06000DCF337F06000E0F35D
:104F7A0038F0600014F339F0600018F33AF060007A
:104F8A001CF33BF0600020F33CF078EC20F060006A
:104F9A00D4F0C1F06000D8F0C2F06000DCF0C3F0D9
:104FAA006000E0F0C4F06000D4F31CF06000D8F3B5
:104FBA001DF06000DCF31EF06000E0F31FF0FEEC71
:104FCA0032F0600070F035F0600074F036F0600086
:104FDA0078F037F060007CF038F0600014F339F0B4
:104FEA00600018F33AF060001CF33BF0600020F315
:104FFA003CF078EC20F06000D4F044F16000D8F086
:10500A0045F16000DCF046F16000E0F047F1120083
:10501A00600024F31CF0600028F31DF060002CF3FC
:10502A001EF0600030F31FF0600034F320F06000DF
:10503A0038F321F060003CF322F0600040F323F0E3
:10504A0045EC25F0600070F0AFF0600074F0B0F04D
:10505A00600078F0B1F060007CF0B2F06000BCF261
:10506A009AF06000C0F29BF06000C4F29CF060000D
:10507A00C8F29DF0CEEC23F0600068F2C5F0600043
:10508A006CF2C6F0600070F2C7F0600074F2C8F00B
:10509A00600034F368F0600038F369F060003CF3B4
:1050AA006AF0600040F36BF0600034F364F0600073
:1050BA0038F365F060003CF366F0600040F367F097
:1050CA009FEC1EF0600090F135F0600094F136F02C
:1050DA00600098F137F060009CF138F0600024F32A
:1050EA0068F0600028F369F060002CF36AF0600051
:1050FA0030F36BF0600024F364F0600028F365F08D
:10510A0060002CF366F0600030F367F09FEC1EF04D
:10511A00600090F139F0600094F13AF0600098F183
:10512A003BF060009CF13CF078EC20F06000D4F099
:10513A00F5F06000D8F0F6F06000DCF0F7F06000FF
:10514A00E0F0F8F06000D4F320F06000D8F321F02A
:10515A006000DCF322F06000E0F323F0AE0E1C6E78
:10516A00F90E1D6EF60E1E6E470E1F6E45EC25F0EB
:10517A00600070F035F0600074F036F0600078F08E
:10518A0037F060007CF038F0000E396E000E3A6E8F
:10519A00800E3B6EBF0E3C6E78EC20F06000D4F0BF
:1051AA00F5F06000D8F0F6F06000DCF0F7F060008F
:1051BA00E0F0F8F06000D4F37DF06000D8F37EF000
:1051CA006000DCF37FF06000E0F380F038EC22F05E
:1051DA006000F4F19AF06000F8F19BF06000FCF1D5
:1051EA009CF0600000F29DF0CEEC23F0600068F2C3
:1051FA00F5F060006CF2F6F0600070F2F7F0600013
:10520A0074F2F8F06000D4F335F06000D8F336F0A9
:10521A006000DCF337F06000E0F338F0600014F36C
:10522A0039F0600018F33AF060001CF33BF06000BC
:10523A0020F33CF078EC20F06000D4F034F1600008
:10524A00D8F035F16000DCF036F16000E0F037F1BB
:10525A006000D4F31CF06000D8F31DF06000DCF3AA
:10526A001EF06000E0F31FF0FEEC32F0600070F018
:10527A0035F0600074F036F0600078F037F06000C6
:10528A007CF038F0600014F339F0600018F33AF05B
:10529A0060001CF33BF0600020F33CF078EC20F057
:1052AA006000D4F030F16000D8F031F16000DCF039
:1052BA0032F16000E0F033F11200000E0001686F75
:1052CA00A00E696F8C0E6A6F440E6B6F600004F358
:1052DA0039F0600008F33AF060000CF33BF060002C
:1052EA0010F33CF06000F4F21CF06000F8F21DF0DC
:1052FA006000FCF21EF0600000F31FF0FEEC32F0DA
:10530A00600070F035F0600074F036F0600078F0FC
:10531A0037F060007CF038F078EC20F06000D4F0D0
:10532A0064F06000D8F065F06000DCF066F06000C0
:10533A00E0F067F09FEC1EF0600090F197F06000DB
:10534A0094F198F0600098F199F060009CF19AF05D
:10535A0060005CF28FF0600060F290F0600064F22E
:10536A0091F0600068F292F022EC2FF060003CF2BB
:10537A009BF0600040F29CF0600044F29DF06000F7
:10538A0048F29EF060006CF27DF0600070F27EF0F0
:10539A00600074F27FF0600078F280F0A5EC2FF0E4
:1053AA006000F4F14DF06000F8F14EF0000E0001DB
:1053BA00686F000E696F280E6A6F440E6B6F60008B
:1053CA0010F539F0600014F53AF0600018F53BF07A
:1053DA0060001CF53CF06000E4F21CF06000E8F2AA
:1053EA001DF06000ECF21EF06000F0F21FF0FEEC1F
:1053FA0032F0600070F035F0600074F036F0600052
:10540A0078F037F060007CF038F078EC20F060003B
:10541A00D4F064F06000D8F065F06000DCF066F06B
:10542A006000E0F067F09FEC1EF0600090F197F0EA
:10543A00600094F198F0600098F199F060009CF196
:10544A009AF060005CF28FF0600060F290F0600009
:10545A0064F291F0600068F292F022EC2FF06000A2
:10546A003CF29BF0600040F29CF0600044F29DF038
:10547A00600048F29EF060006CF27DF0600070F20D
:10548A007EF0600074F27FF0600078F280F0A5ECA4
:10549A002FF06000F4F1E5F06000F8F1E6F0E5C005
:1054AA00DDF0E6C0DEF01200000E0001686FA00E0B
:1054BA00696F8C0E6A6F440E6B6F6000D0F439F01E
:1054CA006000D4F43AF06000D8F43BF06000DCF4F9
:1054DA003CF06000F4F21CF06000F8F21DF060008D
:1054EA00FCF21EF0600000F31FF0FEEC32F06000E8
:1054FA0070F035F0600074F036F0600078F037F044
:10550A0060007CF038F078EC20F06000D4F064F0B1
:10551A006000D8F065F06000DCF066F06000E0F052
:10552A0067F09FEC1EF0600090F197F0600094F134
:10553A0098F0600098F199F060009CF19AF0600090
:10554A005CF28FF0600060F290F0600064F291F01B
:10555A00600068F292F022EC2FF060003CF29BF0BF
:10556A00600040F29CF0600044F29DF0600048F256
:10557A009EF060006CF27DF0600070F27EF06000D8
:10558A0074F27FF0600078F280F0A5EC2FF06000F2
:10559A00F4F1E3F06000F8F1E4F0000E0001686F46
:1055AA00000E696F280E6A6F440E6B6F6000C0F4BC
:1055BA0039F06000C4F43AF06000C8F43BF06000CF
:1055CA00CCF43CF06000E4F21CF06000E8F21DF05C
:1055DA006000ECF21EF06000F0F21FF0FEEC32F018
:1055EA00600070F035F0600074F036F0600078F01A
:1055FA0037F060007CF038F078EC20F06000D4F0EE
:10560A0064F06000D8F065F06000DCF066F06000DD
:10561A00E0F067F09FEC1EF0600090F197F06000F8
:10562A0094F198F0600098F199F060009CF19AF07A
:10563A0060005CF28FF0600060F290F0600064F24B
:10564A0091F0600068F292F022EC2FF060003CF2D8
:10565A009BF0600040F29CF0600044F29DF0600014
:10566A0048F29EF060006CF27DF0600070F27EF00D
:10567A00600074F27FF0600078F280F0A5EC2FF001
:10568A006000F4F1E1F06000F8F1E2F0E1C0DFF06F
:10569A00E2C0E0F01200166E1650D8A411AE22D065
:1056AA00600038F012F060003CF013F0600040F047
:1056BA0014F0600044F015F0121E131E141E151E7D
:1056CA00122A000E132214221522600048F018F044
:1056DA0060004CF019F0600050F01AF0600054F0CD
:1056EA001BF00CD0600038F018F060003CF019F0A4
:1056FA00600040F01AF0600044F01BF00E500F10EA
:10570A0010101110D8A409D0000E0E6E000E0F6EE4
:10571A00000E106E000E116E1200960E176E06D055
:10572A00172AD8901B321A3219321832000E18145E
:10573A00126E000E1914136E000E1A14146EFE0E59
:10574A001B14156E1250131014101510D8B40DD066
:10575A00E7D7172A010E1826000E19221A221B2231
:10576A00D8901B321A3219321832000E1814126EDF
:10577A00000E1914136E000E1A14146EFF0E1B1469
:10578A00156E1250131014101510D8B407D0E1D7A3
:10579A001706D890183619361A361B361ABE03D091
:1057AA00020E1760F5D717B008D0FF0E1816FF0EB5
:1057BA0019167F0E1A16FF0E1B16D89017326000A4
:1057CA005CF012F0136A146A156A600048F015F06A
:1057DA00146A136A126A12501812135019121450CA
:1057EA001A1215501B121650D8A411AE01D01B8ED6
:1057FA00600060F00EF0600064F00FF0600068F086
:10580A0010F060006CF011F01200600014F20EF05B
:10581A00600018F20FF060001CF210F0600020F235
:10582A0011F08D0E126E000E136ED6EC30F00001E0
:10583A008EAF14D088AF09D0000E856F000E866F28
:10584A00800E876FBF0E886F1200000E856F000EE4
:10585A00866F000E876F000E886F12008E5104E16A
:10586A001D0E8D5DD8A00DD0600014F285F0600089
:10587A0018F286F060001CF287F0600020F288F0CF
:10588A001200600014F27DF0600018F27EF06000F1
:10589A001CF27FF0600020F280F0A5EC2FF060008F
:1058AA00F4F10EF06000F8F10FF06000FCF110F076
:1058BA00600000F211F0010E50EC2BF0600038F09D
:1058CA0089F060003CF08AF0600040F08BF06000E4
:1058DA0044F08CF0600014F20EF0600018F20FF041
:1058EA0060001CF210F0600020F211F0600024F257
:1058FA0012F0600028F213F060002CF214F060003D
:10590A0030F215F063EC2DF0D8B023D0600024F209
:10591A0035F0600028F236F060002CF237F06000B3
:10592A0030F238F0000E396E000E3A6E800E3B6E81
:10593A00BF0E3C6E78EC20F06000D4F085F0600079
:10594A00D8F086F06000DCF087F06000E0F088F0C4
:10595A001200600024F285F0600028F286F06000F0
:10596A002CF287F0600030F288F0120060000CF22E
:10597A0085F0600010F286F00001D89085378637EE
:10598A00D89085378637600004F287F0600008F205
:10599A0088F0855187278651882360001FF2F6FF19
:1059AA00600023F2F7FF000EF86E09006F00D4FFC3
:1059BA0089F009006F00D4FF8AF009006F00D4FF54
:1059CA008BF00A006F00D4FF8CF066D0600024F2DE
:1059DA0068F0600028F269F060002CF26AF060005A
:1059EA0030F26BF06000F4F164F06000F8F165F0F9
:1059FA006000FCF166F0600000F267F09FEC1EF0B8
:105A0A00600090F135F0600094F136F0600098F192
:105A1A0037F060009CF138F000018307D8A08407B2
:105A2A0060000CF285F0600010F286F0D89085379D
:105A3A008637D89085378637600004F287F0600091
:105A4A0008F288F0855187278651882360001FF263
:105A5A00F6FF600023F2F7FF000EF86E09006F00F0
:105A6A00D4FF39F009006F00D4FF3AF009006F0043
:105A7A00D4FF3BF00A006F00D4FF3CF078EC20F032
:105A8A006000D4F089F06000D8F08AF06000DCF0A1
:105A9A008BF06000E0F08CF0000183518411D8A4EF
:105AAA0095D7600024F27DF0600028F27EF0600055
:105ABA002CF27FF0600030F280F01200000E0E141B
:105ACA00166E000E0F14176E800E1014186E7F0ECD
:105ADA001114196E1650171018101910D8A408D0DE
:105AEA00000E0E6E000E0F6E000E106E000E116E7E
:105AFA00000E1214166E000E1314176E800E141474
:105B0A00186E7F0E1514196E1650171018101910EA
:105B1A00D8A408D0000E126E000E136E000E146E7A
:105B2A00000E156E11AE21D0600038F016F060003C
:105B3A003CF017F0600040F018F0600044F019F0F3
:105B4A00161E171E181E191E162A000E17221822B4
:105B5A001922000E16240E6E000E17200F6E000E6C
:105B6A001820106E800E1920116E15AE21D060001B
:105B7A0048F016F060004CF017F0600050F018F092
:105B8A00600054F019F0161E171E181E191E162A48
:105B9A00000E172218221922000E1624126E000E69
:105BAA001720136E000E1820146E800E1920156E21
:105BBA00000E0E1A000E0F1A000E101A800E111A7D
:105BCA00000E121A000E131A000E141A800E151A5D
:105BDA0012500E5C13500F5814501058155011588B
:105BEA00D8B002D0D8901200D88012006000F4F227
:105BFA0035F06000F8F236F06000FCF237F0600031
:105C0A0000F338F0000E206EA00E216E8C0E226E6C
:105C1A00440E236E600034F10EF0600038F10FF08C
:105C2A00000E0FBEFF0E106E116E010E50EC2BF01F
:105C3A00600038F01CF060003CF01DF0600040F09D
:105C4A001EF0600044F01FF045EC25F0600070F093
:105C5A0039F0600074F03AF0600078F03BF06000D0
:105C6A007CF03CF078EC20F06000D4F0BDF06000ED
:105C7A00D8F0BEF06000DCF0BFF06000E0F0C0F0E9
:105C8A006000E4F235F06000E8F236F06000ECF211
:105C9A0037F06000F0F238F0000E206E000E216E30
:105CAA00280E226E440E236E600094F30EF06000FC
:105CBA0098F30FF0000E0FBEFF0E106E116E010E5C
:105CCA0050EC2BF0600038F01CF060003CF01DF046
:105CDA00600040F01EF0600044F01FF045EC25F033
:105CEA00600070F039F0600074F03AF0600078F00B
:105CFA003BF060007CF03CF078EC20F06000D4F0DF
:105D0A00B9F06000D8F0BAF06000DCF0BBF06000D7
:105D1A00E0F0BCF01200DB0E0E6E0F0E0F6E490E95
:105D2A00106E400E116E6000A0F212F06000A4F234
:105D3A0013F06000A8F214F06000ACF215F063EC06
:105D4A002DF0D8B03DD06000A0F235F06000A4F28A
:105D5A0036F06000A8F237F06000ACF238F0E40EDA
:105D6A00396ECB0E3A6E960E3B6EC00E3C6E78ECD8
:105D7A0020F06000D4F0ACF06000D8F0ADF0600024
:105D8A00DCF0AEF06000E0F0AFF06000B0F297F047
:105D9A006000B4F298F06000B8F299F06000BCF2CA
:105DAA009AF0A1EC1CF060005CF2A8F0600060F2CE
:105DBA00A9F0600064F2AAF0600068F2ABF0120089
:105DCA006000A0F235F06000A4F236F06000A8F29C
:105DDA0037F06000ACF238F0DB0E396E0F0E3A6E17
:105DEA00C90E3B6E3F0E3C6E78EC20F06000D4F09A
:105DFA00ACF06000D8F0ADF06000DCF0AEF060000E
:105E0A00E0F0AFF06000B0F297F06000B4F298F002
:105E1A006000B8F299F06000BCF29AF0A1EC1CF0B4
:105E2A0060005CF2A8F0600060F2A9F0600064F221
:105E3A00AAF0600068F2ABF0120060003CF285F054
:105E4A00600040F286F0600044F287F0600048F299
:105E5A0088F01CEC30F0600014F21CF0600018F2BC
:105E6A001DF060001CF21EF0600020F21FF0FEEC34
:105E7A0032F0600070F035F0600074F036F06000C7
:105E8A0078F037F060007CF038F060003CF239F0CE
:105E9A00600040F23AF0600044F23BF0600048F2E1
:105EAA003CF078EC20F06000D4F093F06000D8F079
:105EBA0094F06000DCF095F06000E0F096F060008D
:105ECA003CF235F0600040F236F0600044F237F000
:105EDA00600048F238F060004CF239F0600050F28D
:105EEA003AF0600054F23BF0600058F23CF078EC73
:105EFA0020F06000D4F08FF06000D8F090F06000DD
:105F0A00DCF091F06000E0F092F060003CF285F085
:105F1A00600040F286F0600044F287F0600048F2C8
:105F2A0088F01CEC30F0600014F28FF0600018F278
:105F3A0090F060001CF291F0600020F292F01200E2
:105F4A0000017F358035466E4650D8A409D0000E30
:105F5A007D6F000E7E6F000E7F6F000E806F120045
:105F6A006000F4F181F06000F8F182F06000FCF169
:105F7A0083F0600000F284F0200E05D0D8908433BC
:105F8A00833382338133E82EF9D78151456E7F8F6F
:105F9A00FF0E7D17FF0E7E17FF0E7F17000E80176C
:105FAA00960E465E46AE16D04650800A970FD8B077
:105FBA0009D0000E7D6F000E7E6F000E7F6F000EFF
:105FCA00806F1200D89080337F337E337D33463E14
:105FDA00F9D715D01F0E46640FD0000E7D6F000E44
:105FEA007E6F000E7F6F000E806F1200D8907D3793
:105FFA007E377F37803746064650D8A4F7D74550B4
:10600A00D8B408D0801F7F1F7E1F7D6D000E7E23AF
:10601A007F2380236000F4F17DF06000F8F17EF0C8
:10602A006000FCF17FF0600000F280F01200600076
:10603A0014F20EF0600018F20FF060001CF210F07B
:10604A00600020F211F08D0E126E000E136ED6EC67
:10605A0030F000018EAF09D0000E856F000E866FFA
:10606A00000E876F000E886F12008E5104E11D0E1C
:10607A008D5DD8A00DD0600014F285F0600018F292
:10608A0086F060001CF287F0600020F288F01200AF
:10609A00600014F27DF0600018F27EF060001CF2DD
:1060AA007FF0600020F280F0A5EC2FF06000F4F1A0
:1060BA000EF06000F8F10FF06000FCF110F06000E3
:1060CA0000F211F0010E50EC2BF0600038F089F06C
:1060DA0060003CF08AF0600040F08BF0600044F011
:1060EA008CF0600024F285F0600028F286F06000EF
:1060FA002CF287F0600030F288F01200000E3F01A7
:10610A00BE6F000EBD6F000EBA6F000EBB6F000EA1
:10611A00BC6F040EC66F000EC26FE10EC36F000E95
:10612A00C46F000EC56F000E3A01706F000E606FEB
:10613A00C00E506F000E806F000E406F000E716F20
:10614A00040E816F000E516F000E416F000E616FD9
:10615A00000E5A6F000E5B6F000E6A6F000E6B6FB7
:10616A00000E7A6F000E7B6F000E826F000E426F78
:10617A00000E526F000E626F000E726F4369536910
:10618A0063697369070E836F000E546F090EDE6F21
:10619A001E0E096F0D0EC06F1F0E0C6F080EDF6FFB
:1061AA0012000E500F1010101110D8A40BD060005E
:1061BA004BF0D9FF60004FF0DAFF000EDE6E000EE2
:1061CA00DD6E120011507F0B146E156AD8901436CA
:1061DA00153660004BF0D9FF60004FF0DAFF60001F
:1061EA0053F0DEFF600057F0DDFF10AE03D0146AF3
:1061FA00142A01D0146A145060004BF0D9FF6000D1
:10620A004FF0DAFFDE12000EDD1260004BF0D9FF0C
:10621A0060004FF0DAFF820EDE26FF0EDD221180CB
:10622A001182118411861188118A119C109E120004
:10623A00640EF66E670EF76E000EF86E00EE00F151
:10624A0010EE30F009006F00D7FFEEFFE550E15085
:10625A00F9E1500EF66E6B0EF76E000EF86E00EE58
:10626A00F9F010EE06F009006F00D7FFEEFFE550D7
:10627A00E150F9E100EE30F12E0EEE6AE806FDE19A
:10628A0000EEB9F0400EEE6AE806FDE100EE47F0D6
:10629A000C0EEE6AE806FDE1080ED56E000ED66E0B
:1062AA00000ED76E000165EF10F00001DD514718AE
:1062BA0004E1DE514818D8B425D0DEBF0FD0DE5134
:1062CA0003E1DD05D8A00AD03F01CEA505D0000123
:1062DA00EF2B474A482A07D09A9105D00001EF07C9
:1062EA004706D8A048060001EF51800A780FD8A0C7
:1062FA0002D0000EEF6FEFAF02D0070EEF6F1AEC6D
:10630A0034F012003F019A91000E0001DE6F000E78
:10631A00DD6F1200000E0001931B000E941B000E8D
:10632A00951B800E961B60003CF235F0600040F22F
:10633A0036F0600044F237F0600048F238F060004E
:10634A004CF239F0600050F23AF0600054F23BF03F
:10635A00600058F23CF078EC20F06000D4F08FF046
:10636A006000D8F090F06000DCF091F06000E0F09E
:10637A0092F0120023AE1BD0600080F01CF0600087
:10638A0084F01DF0600088F01EF060008CF01FF0B1
:10639A00FEEC32F0600070F020F0600074F021F042
:1063AA00600078F022F060007CF023F012006000B8
:1063BA0080F020F0600084F021F0600088F022F084
:1063CA0060008CF023F012004D504B1804E14E503F
:1063DA004C18D8B41FD04EBE0AD04E5003E14D041B
:1063EA00D8A005D00001F12B4B4A4C2A05D0000158
:1063FA00F1074B06D8A04C06F151800A780FD8A0B5
:10640A0002D0000EF16FF1AF02D0070EF16FCAECA5
:10641A0033F012003F01B29112003F01D28B000EFD
:10642A00D2BF010E0E6ED29F550ED46FAA0ED46F34
:10643A00D491000E38019F6F000E9E6F080E9D6F5B
:10644A00550E3F01D46FAA0ED46FD4810EA002D08C
:10645A00D28F02D03F01D29F390181818991889DD3
:10646A008791869D8495849112000001E55149180F
:10647A0004E1E6514A18D8B41DD0E6BF09D0E65166
:10648A0003E1E505D8A004D0F02B494A4A2A04D0F2
:10649A00F0074906D8A04A06F051800A780FD8A01A
:1064AA0002D0000EF06FF0AF02D0070EF06F2EECA4
:1064BA0034F012003F01A6911200000E0F6EE20E98
:1064CA0011EC35F0070E02EC35F0126E600048F060
:1064DA000FF0270E11EC35F03F01CB95000E02ECC0
:1064EA0035F0126E12500109126E600048F00FF07A
:1064FA00200E11EC35F03F01CB8512004D504E10A5
:10650A00D8B406D0000E4C6E000E4B6E3F01B2811D
:10651A000001E551E611D8B406D0000E4A6E000E0D
:10652A00496E3F01A6810001DD51DE11D8B4120087
:10653A00000E486E000E476E3F019A81120034C168
:10654A00C1F035C1C2F036C1C3F037C1C4F030C1A1
:10655A0044F131C145F132C146F133C147F160001E
:10656A008CF34DF0600090F34EF0E1C0E5F0E2C02C
:10657A00E6F0DFC0DDF0E0C0DEF01200066E3F019B
:10658A00CB97065091EC35F0056E000E076E0DD0D4
:10659A000750010DF3500224D96EF4500320DA6E2D
:1065AA00000E91EC35F0DF6E072A0450075CD8A084
:1065BA00EFD73F01CB871200136E3F01CB971350E1
:1065CA0087EC35F0126E000E146E0CD060003FF0AE
:1065DA00D9FF600043F0DAFFDF5087EC35F00F4A4D
:1065EA00102A142A1150145CD8A0F0D73F01CB8787
:1065FA0012001C501D101E101F10D8B408D0000E17
:10660A001C1A000E1D1A000E1E1A800E1F1A600098
:10661A0070F01CF0600074F01DF0600078F01EF05D
:10662A0060007CF01FF01200126E070E02EC35F0CB
:10663A00136E1350800B136E1350D8B403D012503C
:10664A00D8B406D01350D8A412001250D8B41200ED
:0C665A00530E0F6E500E11EC35F01200C4
:106668003901A191510E026E000E036E020E046EE6
:10667800610EC3EC32F07E0E026E270E1EEC35F072
:10668800600044F1FBF00001FC6B600048F1F9F098
:10669800FA6B110037EC35F083EC30F012EC32F085
:1066A800AEEC34F042EC34F078EC34F066EC34F0D4
:1066B80054EC34F08AEC34F09CEC34F09BEC35F07C
:1066C8002BEC35F012000001E8BF07D0E85103E1D8
:1066D800E705D8A002D0F22B01D0F207F251800AC8
:1066E800780FD8A002D0000EF26FF2AF02D0070EDA
:1066F800F26FDEEC33F012000001EEBF07D0EE516E
:1067080003E1ED05D8A002D0F42B01D0F407F45131
:10671800800A780FD8A002D0000EF46FF4AF02D030
:10672800070EF46FF2EC33F012000001EABF07D055
:10673800EA5103E1E905D8A002D0F32B01D0F30711
:10674800F351800A780FD8A002D0000EF36FF3AF90
:1067580002D0070EF36F06EC34F01200406020A060
:106768008090105004050109080A02060105040674
:10677800020A0809080901050406020A20A08090F7
:10678800105040601050406020A080906F00F0FED4
:106798004FF04F50F00B4F6E0001F151010D100EEC
:1067A800F324D96E010EF420DA6EDF504F103F014A
:1067B800BC6F12006F00F4FE4FF04F50F00B4F6E9D
:1067C8000001F251010D180EF324D96E010EF420C8
:1067D800DA6EDF504F103F01BD6F12006F00F0FE00
:1067E8004FF04F500F0B4F6E0001F451010D280E62
:1067F800F324D96E010EF420DA6EDF504F103F01FA
:10680800BC6F12006F00F4FE4FF04F500F0B4F6E2D
:106818000001F351010D200EF324D96E010EF4206E
:10682800DA6EDF504F103F01BD6F12006F00E8FEB7
:106838004FF04F500F0B4F6E0001EF51010D000E3E
:10684800F324D96E010EF420DA6EDF504F103F01A9
:10685800BA6F12006F00E8FE4FF04F50F00B4F6E0A
:106868000001F051010D080EF324D96E010EF42039
:10687800DA6EDF504F103F01BA6F1200040E3F016D
:10688800966FA00E956F000E976F9A0E936F000E7D
:10689800926F3901A9919981000E3F01946F1200FE
:1068A800000E3F019B6F000E9C6F020E9D6F630EE2
:1068B800996FC00E986F3901A89D988D320E3F01CF
:1068C8009A6F1200040E3F01A26FA00EA16F000E76
:1068D800A36F9A0E9F6F000E9E6F3901A791978143
:1068E800000E3F01A06F1200000E3F01A76F000EBF
:1068F800A86F020EA96F630EA56FC00EA46F3901B1
:10690800A69D968D320E3F01A66F1200040E3F0120
:10691800AE6FA00EAD6F000EAF6F9A0EAB6F000E8C
:10692800AA6F3901A4959485000E3F01AC6F12003F
:10693800000E3F01B36F000EB46F020EB56F630E09
:10694800B16FC00EB06F3901A4919481320E3F012E
:10695800B26F1200000E3901C06F000EC16F000E39
:10696800C26F000EC36F000EC46F000EC56F000E1D
:10697800C66F000EC76F1200C1C0BDF0C2C0BEF026
:10698800C3C0BFF0C4C0C0F044C1B9F045C1BAF03B
:0A69980046C1BBF047C1BCF012007D
:1069A4006F0060FF08F0E9EC31F0630E3F01B16F56
:1069B400C00EB06F3901A491600023F0D8FF11001C
:1069C4006F0060FF0CF05AEC31F0630E3F01996FD9
:1069D400C00E986F3901A89D600033F0D8FF1100F4
:1069E4006F0060FF0DF03AEC32F0630E3F01A56FCB
:1069F400C00EA46F3901A69D600037F0D8FF1100C6
:106A0400106E3F01CB97105087EC35F00F6E000EDF
:106A140087EC35F0116E3F01CB8711501200116ED7
:106A24003F01CB97115087EC35F0106E0F5087EC77
:106A340035F03F01CB871200036E3F01CB97035023
:106A440091EC35F0046E025091EC35F03F01CB87A8
:106A54001200400E3D01156F030E166F1F0E196FC5
:106A6400010E1C6F830E146F1200600E3901D96F72
:106A7400000EDB6F000EDD6F080EDF6F000EDE6FA1
:106A840012000001DD51DE11D8B41200000E486E70
:0A6A9400000E476E3F019A811200C8
:106AA0006F0060FF09F067EC33F03901A4956000D6
:066AB00027F0D8FF1100E1
:106AB8006F0060FF0AF080EC33F03901A7916000A5
:066AC8002BF0D8FF1100C5
:106AD0006F0060FF0BF099EC33F03901A991600071
:106AE0002FF0D8FF11003F01BC9FBC9DBC9BBC99FF
:106AF000BD9DBD9FBD99BD9B12003F01BC97BC933E
:106B0000BC95BC91BA93BA97BA91BA9512000E6E21
:106B100060003BF011FD3901A2A9FDD73D011051E4
:106B20001200016E600007F011FD3901A2A9FDD726
:106B30003D01105112003901A1913F01D29139015B
:106B4000918112003F01BD93BD95BD91BD9712008B
:066B5000FF00FF00FFFF43
:026B580011002A
:020000040020DA
:10000000FF0FFF0FFF0FFF0FFF0FFF0FFF0FFF0F80
:020000040030CA
:0A0000008CFFFCFC9FFFFFDFFFFFF9
:00000001FF
